{
  "contractName": "InfoContract",
  "abi": [
    {
      "inputs": [
        {
          "internalType": "string",
          "name": "_name",
          "type": "string"
        },
        {
          "internalType": "uint256",
          "name": "_age",
          "type": "uint256"
        }
      ],
      "name": "setInfo",
      "outputs": [],
      "stateMutability": "nonpayable",
      "type": "function"
    },
    {
      "inputs": [],
      "name": "getInfo",
      "outputs": [
        {
          "internalType": "string",
          "name": "",
          "type": "string"
        },
        {
          "internalType": "uint256",
          "name": "",
          "type": "uint256"
        }
      ],
      "stateMutability": "view",
      "type": "function"
    }
  ],
  "bytecode": "0x608060405234801561001057600080fd5b50610447806100206000396000f3fe608060405234801561001057600080fd5b50600436106100365760003560e01c80635a9b0b891461003b5780638262963b1461005a575b600080fd5b610043610076565b604051610051929190610285565b60405180910390f35b610074600480360381019061006f9190610350565b610112565b005b606060008060015481805461008a906103df565b80601f01602080910402602001604051908101604052809291908181526020018280546100b6906103df565b80156101035780601f106100d857610100808354040283529160200191610103565b820191906000526020600020905b8154815290600101906020018083116100e657829003601f168201915b50505050509150915091509091565b828260009190610123929190610130565b5080600181905550505050565b82805461013c906103df565b90600052602060002090601f01602090048101928261015e57600085556101a5565b82601f1061017757803560ff19168380011785556101a5565b828001600101855582156101a5579182015b828111156101a4578235825591602001919060010190610189565b5b5090506101b291906101b6565b5090565b5b808211156101cf5760008160009055506001016101b7565b5090565b600081519050919050565b600082825260208201905092915050565b60005b8381101561020d5780820151818401526020810190506101f2565b8381111561021c576000848401525b50505050565b6000601f19601f8301169050919050565b600061023e826101d3565b61024881856101de565b93506102588185602086016101ef565b61026181610222565b840191505092915050565b6000819050919050565b61027f8161026c565b82525050565b6000604082019050818103600083015261029f8185610233565b90506102ae6020830184610276565b9392505050565b600080fd5b600080fd5b600080fd5b600080fd5b600080fd5b60008083601f8401126102e4576102e36102bf565b5b8235905067ffffffffffffffff811115610301576103006102c4565b5b60208301915083600182028301111561031d5761031c6102c9565b5b9250929050565b61032d8161026c565b811461033857600080fd5b50565b60008135905061034a81610324565b92915050565b600080600060408486031215610369576103686102b5565b5b600084013567ffffffffffffffff811115610387576103866102ba565b5b610393868287016102ce565b935093505060206103a68682870161033b565b9150509250925092565b7f4e487b7100000000000000000000000000000000000000000000000000000000600052602260045260246000fd5b600060028204905060018216806103f757607f821691505b6020821081141561040b5761040a6103b0565b5b5091905056fea2646970667358221220edd182f3d0b4e08050df56c5f0297e6bb47f0a0b9143606cd910d09d1bbdc49664736f6c63430008090033",
  "immutableReferences": {},
  "source": "pragma solidity >=0.4.22 <0.9.0;\r\n\r\ncontract InfoContract {\r\n    string name;\r\n    uint  age;\r\n    \r\n    function setInfo(string calldata _name, uint _age) public {\r\n        name = _name;\r\n        age = _age;\r\n    }\r\n    function getInfo() public view returns(string memory, uint) {\r\n        return (name, age);\r\n    }\r\n    \r\n}\r\n",
  "sourcePath": "D:\\project\\dapp\\fistTruffleDemo\\contracts\\InfoContract.sol",
  "compiler": {
    "name": "solc",
    "version": "0.8.9+commit.e5eed63a.Emscripten.clang"
  },
  "schemaVersion": "3.4.3",
  "updatedAt": "2021-10-27T10:09:28.125Z",
  "devdoc": {
    "kind": "dev",
    "methods": {},
    "version": 1
  },
  "userdoc": {
    "kind": "user",
    "methods": {},
    "version": 1
  }
}